:020000040800F2
:1000000000800120C1320008CD310008CF31000846
:10001000D1310008D3310008D531000800000000BC
:10002000000000000000000000000000D7310008C0
:10003000D931000800000000DB310008DD31000884
:10004000E5320008E9320008ED320008E13100082D
:10005000F1320008F5320008F9320008FD320008DC
:100060000133000805330008093300080D33000888
:100070001133000815330008193300081D33000838
:100080002133000825330008293300082D330008E8
:10009000313300083533000839330008E5310008F2
:1000A0003D33000841330008453300084933000858
:1000B0004D33000851330008553300085933000808
:1000C0005D330008613300086533000869330008B8
:1000D0006D33000871330008753300087933000868
:1000E000EB3100087D3300088133000885330008B8
:1000F000893300088D3300089133000895330008D8
:10010000993300089D330008A1330008A533000887
:10011000A9330008AD330008B1330008B533000837
:10012000F3310008F7310008B9330008BD33000887
:10013000C1330008C5330008C9330008CD330008B7
:10014000D1330008D5330008D9330008DD33000867
:10015000E1330008E5330008E9330008ED33000817
:10016000F1330008F5330008F9330008FD330008C7
:100170000134000805340008000000000000000001
:10018000093400080D34000810B50FF61803595C47
:100190004018046824F080042243026010BD10B5AA
:1001A0000FF60003595C40184468240C42EA0442EC
:1001B000426010BD0FF2EC73595C4018C26070478A
:1001C0000FF2E073595C401882607047DFF87417D3
:1001D000002008707047DFF87007416A084780B553
:1001E000DFF86807416D09680A68520852000A6022
:1001F000806D00F0EBFA72B600F020F9DFF84807E6
:10020000417F012906D100224277017062B6BDE824
:10021000014031E10021017062B601BD10B5DFF887
:10022000284701206074FFF7DAFFE088BDE810403E
:1002300000F0F9BB80B5012000F030F9BDE80440C2
:10024000012128E12DE9F041044686B02068DFF85D
:100250000017884240F0CA80DFF8F856DFF8F866E9
:10026000686840F0040068600222686800F00400DA
:1002700005904FF4005700F0C3F800F0C1F805985E
:10028000696841F008016960686800F0080005903D
:100290000598696841F010016960686800F0100015
:1002A00005900598296941F4004129614FF4806166
:1002B000286900F400400590059800910192002102
:1002C0000291032206210491039200F095F84FF465
:1002D000006200920221019100220292032100F0AB
:1002E00088F802210191002202924FF480500321EC
:1002F000009000F07EF8DFF8646601224FF40051B0
:10030000304600F0D5FC0121019100220321039128
:1003100002920492009700F06FF8DFF84416019102
:1003200002220292402003210090039100220492B5
:100330006946DFF8300600F0D7FB286840F002007D
:1003400028602968DFF8205601F002010591032199
:10035000059869601020A8600021E960802028616C
:100360006961A961E9612F62DFF80066DFF8008644
:1003700006F11C002860284600F0BCFC4246012122
:100380003046FFF71DFF0021032065652965E864FD
:100390008021A96500206865E8652866686606F121
:1003A0000801A964AC62AF6605F1480000F0A2FC48
:1003B000424600213046FFF703FF05F14800A065E3
:1003C0002C6700220121392000F010FD392000F0B7
:1003D0002BFD00220121382000F008FD382000F01C
:1003E00023FD00220221172000F000FD06B0BDE829
:1003F000F0810391062204926946304600F074BBF6
:100400000598696841F004016960686800F00400BB
:100410000590704710B5DFF85C45402161601720FA
:1004200000F027FD172000F0FFFC00F086FA0128FD
:1004300003D1206840F04000206010BD172000F07C
:10044000FEBC002206E0DFF8040501688A68100699
:10045000F9D401224FF40051DFF8000500F028BC68
:1004600080B5FFF7F0FF0D204FF000510A68401EE5
:10047000FCD1BDE80140E4E710B5DFF8CC44DFF87B
:10048000F8046062FFF7DDFF0620A06200F098FA32
:10049000BDE810400021002000F01ABDF8B5DFF8DB
:1004A000AC440146606D026813685B085B00136032
:1004B000A06D03681D686D086D001D600420DFF8E5
:1004C000B0542E78401EFCD1186840F0020018602D
:1004D000136823F00203136019B102290BD004D36F
:1004E00042E00FF2D041002002E00FF2C0410120B3
:1004F00000F047F838E0DFF85054287C012808BFA6
:10050000EE8906D0DFF874040179C67846EA012640
:10051000EE81A889B04206DA0646E889801BE881A8
:100520000121022001E00320002129742871EE80BE
:100530000022DFF8387401213846FFF725FE3246E5
:1005400000213846FFF72BFE324601213846FFF7DF
:1005500026FEAA6800213846FFF72CFE0FF25C4207
:1005600001213846FFF726FEA06D00F004F800F0E8
:1005700001F8F1BD606D0068016841F001010160A2
:10058000704738B50C46DFF8C013DFF8E053087148
:1005900000F0CFF9052200F0C9F90522002100F092
:1005A000C6F9DFF8D82300212846FFF703FE2246CC
:1005B0002846BDE838400121FCE5002178B5044615
:1005C0004FF48270DFF88453DFF884636860A960B9
:1005D0004FF4E060E8602961002068614FF4007129
:1005E0002862A96107200021E8626962E961A962C5
:1005F00087B02E60284600F0C1FC706840F0020011
:1006000070600022706840F001007060012328686B
:10061000016841F040010160002CDFF82C03DFF895
:10062000601302744277027043744BD00A68DFF89B
:100630005433C44C520852000A6000F120010022D9
:10064000002000F089FE012203924FF48070002107
:10065000029005910491002206926946DFF8283342
:10066000002000F079FEC948016841F001010160F5
:100670000022006800F0010001904FF480710198A1
:100680004FF0904000F014FB02A94FF0904000F0B2
:100690002BFA9DF800001C2100F0D2FE01202070F2
:1006A00001E000F063FF20780128FAD001224FF426
:1006B00080714FF0904000F0FBFA9DF8000000F0D0
:1006C00073FE0FE0886A20F4805088624FF4005077
:1006D000AF4902680A404FF4807102600B68AD4870
:1006E00003400B6008B070BD80B5974A506111831C
:1006F00072B6107840B901211170172000F09FFBED
:1007000062B6BDE80140B7E60120507762B601BD90
:100710008D4A918190600020117C5074012904BFA2
:100720000220FFF7BBBE75E680B572B68649087831
:1007300088B901220A7062B600224FF4005187483E
:1007400000F0B6FA0020FFF7A9FEBDE80440012141
:10075000012000F0BDBB62B601BD38B57B4C606DB9
:1007600001680A68900730D58B4D8C4A7F4BA942AF
:100770002CBF1868106810F0200026D0A942724DD6
:1007800027BF2020586020215160287F012809D1EF
:100790006869698B01446961FFF762FEBDE8324018
:1007A00001207BE60021002000F092FB0020287051
:1007B000FFF749FE606D00F009F8A06D00F006F843
:1007C000687C10B9BDE8314024E631BD006801689D
:1007D00049084900016070472DE9F0415B4CA06D6C
:1007E00001680A68900740F19F806B4B6B4A5F4D30
:1007F00099422CBF2868106810F0020000F0948025
:10080000994227BF0220686002265660606DDFF8BB
:100810006C810768BE469E4527BF20266E6020205B
:100820005060494E3079032800F27E80DFE800F006
:1008300002321F2498F8041098F8030050EA0120AF
:1008400003D098F80020022A0FD000F076F840B9C3
:10085000FFF7F9FD0021012000F03AFBBDE8F0416F
:10086000BDE4FFF7FDFD002023E0022021E0F08839
:10087000BDE8F04100F0D7B8FFF7E5FD0021012009
:1008800000F026FB464870620221B162BDE8F041EB
:1008900000F096B898F802C098F8010050EA0C20D1
:1008A00004D098F800C0BCF1020F05D0FFF7D8FDC6
:1008B0000120BDE8F041F1E5B6F818C0604506DA60
:1008C000ACEB000CA6F818C04FF0010C02E060463B
:1008D0004FF0000C708386F81CC038684008400058
:1008E00038600F687F087F000F609E45086820F021
:1008F0000200086027BF2021696020205060392055
:1009000000F0B7FA606D0068016841F00201016013
:1009100000F00FF8728B00F009F872690121284687
:10092000FFF748FCFFF726FEBDE8F08101212846CD
:1009300035E480220121284626E44021094800F0C0
:10094000B1B90000B60A0020D409002070090020C7
:10095000003C00404810024000080048000C0048DD
:100960000000111000100048500800200004024050
:100970000C3C00401004014035020008980A002099
:100980000C700040D7010008CD0100084C10024057
:10099000C78FFFBFDF8FFFBF810002400000024012
:1009A0001D020008081C3044586C80000A0000003A
:1009B000000000000B00000000000000FF0000002D
:1009C0000248816A90F8200000F03ABDD409002066
:1009D000F8B50446414E0D461046002737704FF4D7
:1009E0008572194600F0DAFDF560284600F035FE04
:1009F0001CB90020FFF7E1FD08E00120FFF7DDFD55
:100A00004021374800F04EF90028F9D0BDE8F14008
:100A100051E03248C06801210172C17A091D89B2D2
:100A20000830FFF761BE38B52C4D04462878012800
:100A300003D16888001B688012E0A868817AC91C0D
:100A4000091B6980407A0E2818BF0F2806D00022A3
:100A50006A700021032000F02DFA01E00121697085
:100A6000AA686888B8B1A8880121041B2970AC80E5
:100A7000A3B24BB1A1B2A4B264421019BDE8344094
:100A800000F58570FFF744BE6878114600F0D2FD8E
:100A9000BDE831400FE06878114600F0CBFD002042
:100AA000287000F008F8BDE834400121032000F070
:100AB00001BA00F03DBE80B50A494FF4857000F0E0
:100AC0008AFD0649886040B14FF481728A801146E0
:100AD000BDE804400830FFF71BBE01BD880A0020B6
:100AE00000100048B70A00082DE9F84F4FF0000940
:100AF000764A774B4FF00F0805460E4634E0754CAA
:100B0000A54214BF072406248C4073493C4341F896
:100B10002C40C143146801EA040C7468E40348BF24
:100B200040EA0C0CC2F800C0546801EA040C746876
:100B3000A40348BF40EA0C0CC2F804C0946801EA60
:100B4000040C7468E40248BF40EA0C0CC2F808C008
:100B5000D46801EA040C7168890248BF40EA0C0CB1
:100B6000C2F80CC009F10109316831FA09F000F04E
:100B70009780012404FA09F414EA0100F2D04FEA44
:100B8000490C032101FA0CF16FEA010E7168E4438C
:100B9000012918BF022903D0112918BF122910D129
:100BA000A968F7680EEA010107FA0CF73943A96052
:100BB00069687768C7F30017214007FA09F73943D6
:100BC0006960716801F00307032F07D1EF6AC1F371
:100BD000C0013C4001FA09F10C43EC62E968B468D9
:100BE0000EEA010104FA0CF42143E9604FEA89019D
:100BF0007468022C18BF122C12D14FEAD90405EBED
:100C0000840401F01C07D4F820A008FA07FB2AEAA4
:100C10000B0AD6F810B00BFA07F747EA0A07276263
:100C20002C680EEA0407347904F0030404FA0CF487
:100C30003C432C607468E40094D51C6844F00104C3
:100C40001C604FEA990C1C6804F00104009401F048
:100C50000C01009C204C54F82C4008FA01F724EABF
:100C60000707B5F1904F08BF002418D01B4CA542D0
:100C700008BF012413D01A4CA54208BF02240ED08D
:100C8000184CA54208BF032409D0174CA54208BF41
:100C9000042404D0154CA5427FF431AF052433E77A
:100CA000BDE8F18F0069084018BF0120C0B270474D
:100CB0000AB181617047816270470D4A136803422F
:100CC0001CBF106000F044BE7047000000040140EB
:100CD000601002400018004808000140000400486D
:100CE00000080048000C00480010004800140048AC
:100CF00014040140F0B508B90120F0BD0568274E85
:100D0000274CB54200F1240308D226494A1914277A
:100D1000B2FBF7F292001A62DC6108E022494A193C
:100D20001426B2FBF6F2920020491A62D96102221F
:100D30005A702E688168C2686FF30E160E430169FF
:100D4000164342690E4381691643C2690E43016A24
:100D500016430E432E608268B2F5804F17D0DA69D1
:100D60000F21A2420CBF124A124A146893F8205075
:100D700005F01C05A94024EA01011160116893F8EF
:100D80002040406804F01C04A04001431160002092
:100D90009861012159701870F0BD000008040240EC
:100DA00000000240F8FFFDBFF8FBFDBF0004024059
:100DB000A8000240A80402400901020002D43248FF
:100DC00081547047314B02F00F021A4402F8041CA0
:100DD00070472F4B19684FF6FF020002114000F4D4
:100DE000E06008432B4908431860704770B5284BF2
:100DF0001C68C4F302230124C3F10705052D2EBF8F
:100E00000F2504FA05F56D1E1E1D072E34BF0023A5
:100E1000DB1E2940994004FA03F3BDE870405B1ED5
:100E20001A401143C8E70000010007D4012200F076
:100E30001F01194B8A40400943F8202070470100E8
:100E40000BD4012200F01F01144B8A40400943F8E3
:100E50002020BFF34F8FBFF36F8F7047010007D47F
:100E6000012200F01F010E4B8A40400943F8202068
:100E70007047010007D4012200F01F01094B8A408E
:100E8000400943F82020704700E400E018ED00E03E
:100E90000CED00E00000FA0500E100E080E100E078
:100EA00000E200E080E200E0244902680A60406855
:100EB0004860704730B500F01BF89C68012505FAC2
:100EC00000F001290CBF24EA0000204398600CE0E8
:100ED00030B500F00DF8DC68012505FA00F00029B6
:100EE0000CBF24EA00002043D86082F3108830BD94
:100EF000EFF3108272B6114B704710B50F4CE068DB
:100F000038B100F01DF800F031FBBDE8104000F0F2
:100F100076BDA06840B100F073FD206800F02BFBA7
:100F2000BDE8104000F01EBD00F01DFD606800F03F
:100F300023FBBDE8104000F020BD0000680A00203F
:100F4000704730B4002513E050F8042BD30744BF9A
:100F5000A9F101039A18091F042942F8045BFAD287
:100F600013468C0744BF15809B1CC90748BF1D70E2
:100F700050F8041B0029E7D130BC704738B5040095
:100F800001D1012032BD606A28B900F068F805D0AF
:100F90000021E16102E00020206160610020A06288
:100FA00004F15C05687820B9002129702046FFF71C
:100FB00049F90220687000F04AF8E168B1F5E06F85
:100FC00004D90020B1F5706F03D104E04FF48050D4
:100FD00001D00021A1626168A268237C01F48271C2
:100FE00002F404421143227D03F002031943A36972
:100FF00002F001021143227F03F40073194394F8B5
:10100000203002F038021143A26A03F08003194332
:10101000236802F4005211431960A16994F8242056
:1010200094F83430090C01F0040102F0100211436D
:10103000E26803F00803194302F4706211430843A5
:1010400021684860002068600121697032BD206815
:10105000016821F040010160704704460D46606858
:10106000B0F5827F70470000806A80B27047806868
:10107000800A00F00100704738B5DFF8DC140C6915
:101080002068FFF7F1FF05462068FFF7EDFF854276
:10109000F9D132BDF0B5DFF8C034DFF8C0541E78A6
:1010A000182402466243B0422A4404D1187858708A
:1010B000547D1C700FE0167D507D92F815C005F12F
:1010C00015076643062807F806C004D0167D1435B8
:1010D00014FB00F42E55012010731A78062A02BF63
:1010E00000294FF0FF30D860F0BD10B5DFF868443C
:1010F000E06810F1010F0ED0FFF7BEFFE1688142FA
:101100002FBFE268E168E2888A182179101AE27834
:101110004843D04000E0002080B210BD2DE9F041EE
:10112000DFF8344425692868FFF7A1FF012803D1BF
:101130002868C1684807FBD42868DFF820848168E4
:1011400021F4806181601825277808F1080015FBDB
:1011500007F14658FFF7C9FF864202D20026012157
:1011600005E021894118B14203D226890021A170EE
:1011700014E00122361AA27010E0CA5908F10803DF
:10118000121ADA5107E06F4308F10801CA59824286
:10119000F3D20023CB5108EB07014F7D062FF2D18C
:1011A000B0B238B9FFF768FFE0600320BDE8F04156
:1011B000FFF754BE022802DAE078012800D0761E3C
:1011C00020690068C1684A07FAD500F02CF9206947
:1011D00000684169090CB6B246EA01464661FFF76C
:1011E0004BFFE06020690068816841F480618160A4
:1011F000BDE8F04100F005BC2DE9F041EFF31088A7
:1012000072B6DFF8541308690268936823F48063A8
:10121000936018200D78DFF844332E4646431E4471
:10122000377B022F20D1376834698878C8B1727B48
:10123000012A0AD101212846FFF72CFF88F31088E4
:101240007168284600F0FCF804E088F3108828460E
:1012500000F0B5F83A4629462046BDE8F04100F0D6
:10126000CBBBFFF75BFF0CE0D0684107FCD5D06833
:10127000BB4900F0800060F49060D0604FF48010B3
:10128000086088F31088BDE8F081F8B5B24C2161A0
:1012900009688B6803F00703C3F10403E3700D6969
:1012A0002D0C05F07F056D1C2571EDB20A69C2F3A6
:1012B0000E02521CE28092B2521E6A431A41103A48
:1012C0004FF6FF739A422CBF23812281A54A93686F
:1012D00043F480139360156845F48015156058BB7E
:1012E0000120A0704FF0FF33E36000209B4B03F11F
:1012F0000C0600251823C7B213FB07F7401CF55551
:10130000C7B2062FF7DB062020708B6823F48063BA
:101310008B60C86800F0800060F49060C8604FF493
:10132000801151610320FFF7A4FD206900688168E6
:1013300041F48041816005E0C868410544BF032055
:10134000FFF78CFD002203210320FFF74FFDBDE8CE
:10135000F2400320FFF768BD2DE9F0410446002567
:10136000EFF3108672B61827DFF8F0C10CF10C0EFF
:1013700007FB05F81EF8080010B16D1C062DF5DB03
:10138000062D0CD06F430CEB07000127077386F383
:1013900010880461427303600D70002002E086F340
:1013A00010880120BDE8F08110B5044600F007F870
:1013B00018206A4A444310190021017310BD38B542
:1013C0000546EFF3108472B60320FFF738FD2A4676
:1013D0001820654942438B5C022B1ED10021284610
:1013E000FFF758FE5C480178062911D100690068B2
:1013F0008168490502D5C2685107FCD4826822F48D
:1014000080628260C1684A07FCD500F00CF804E0F5
:101410004078884218BFFFF781FE0320FFF704FDE4
:1014200084F3108831BDC16801F0800161F49061DE
:10143000C1604FF480104A4908600320FFF719BDCE
:101440002DE9F84307460E46EFF3108872B60320E5
:10145000FFF7F5FC18243846DFF8009114FB00F084
:1014600009EB000502212973AE606E603A4E3078B8
:10147000062808D131787170377068754FF0FF31E8
:10148000F160002056E0FFF730FEA9680918A96056
:1014900009F10803A968327814FB02F29A589142C4
:1014A0002BD3327804E009F1150314FB02F29A5CA5
:1014B00009F1150314FB02FC13F80C30062B07D0BE
:1014C00009F1080C14FB03F35CF803309942EAD2EB
:1014D000114614FB01F109F1150E1EF80130062B1F
:1014E00005D009F1140C14FB03F40CF804706B75AF
:1014F0002A7509F1150257541CE031783378994266
:1015000014FB01F20FD009F1140E09F1150C1EF8AD
:10151000023014FB03F40CF8047069752B7509F1A3
:1015200014018F5403E009F1140369759F54317855
:1015300071703770317872788A4202D0FFF7EEFD11
:1015400002E0A968081AA8600320FFF76DFC88F381
:101550001088BDE8F1830000540A0020E008002054
:101560001404014000040140EC080020094801680F
:1015700021F004010BE000E000BF07490A68D2082F
:1015800040EAC20008600348016841F004010160BC
:1015900030BF704710ED00E000700040F8B50D4618
:1015A000234F00210446397007F10800D61C00F0D3
:1015B00029FAB6080BE0214607F1080000F02EFAE0
:1015C0003878401C04EB86043870A5EB8605B5EB33
:1015D000860FF0D2F1BD1CB5EFF3108472B6144A39
:1015E000107848B1401E107000235360694602F124
:1015F000080000F029FA01E05160009084F310889F
:10160000009816BD38B50146EFF3108572B6084C48
:1016100004F1080000F002FA2178491C217085F3DA
:101620001088606810B1BDE83240004731BD00004D
:10163000780A002080B50E22454B5043184400F034
:10164000EDF9BDE8014000F010BA80B5012000F0CE
:1016500016F8BDE80240002011E038B504463C4DC4
:1016600000202872A875A88168832877284600F092
:10167000C9F905F10E0000F0C5F92C6231BDF8B5CD
:101680000500334C14BF276A04F1240717E001203A
:10169000307207F108037189A1F5817070814FF4F0
:1016A0008172009800F10801B089184400F002FA34
:1016B0000098FFF7A7FFB08900F58170B081284638
:1016C0000E2148432618304600F09FF978BB207F52
:1016D000002818BF012D2AD16946304600F0B4F920
:1016E000307A18B90098817AC91C718140F20311CF
:1016F00070898842CBDA307A012812D10098728939
:1017000000F10801B08907F10803184400F0D2F98C
:101710000098FFF777FF280004BF012020773846A4
:1017200000E0009800F0E7F900203072C6E7F1BD54
:10173000074901F12402904203D10020087700F00C
:1017400094B9096A884218BFFFF75CBF7047000070
:101750002007002038B586B000F096FA00F0A8FA0D
:1017600000F0ACFA00F0B0FA8A4CE06840F080502B
:10177000E060E06800F0805000900098A06C4001AC
:1017800013D5854A4FF48071116000F0A9FA00F07A
:10179000A7FA606C40F480306064A06C40F40000F4
:1017A000A064606C20F48030606400210420FFF7A6
:1017B00081FB142101A800F09BFA206A774D20F0EC
:1017C00002002062206A20F004002062206A20F0DB
:1017D00008002062206A20F010002062206A20F0B9
:1017E00020002062206A20F040002062206A20F061
:1017F00080002062216841F001012160206800F032
:10180000010000900098216841F00201216003214D
:10181000226802F0020200920022009860480291C1
:1018200003924FF6FF71019101A9FFF75DF949F6A7
:10183000FF70019001A94FF09040FFF755F9206823
:10184000400840002060216821F00201216000F082
:1018500059FA02210322009101926846FFF724FB06
:10186000A06C40F00100A06400F03AFA00F038FAF1
:10187000606C20F4407040F400706064606C40F470
:101880000040606447482860284600F052FA012171
:10189000A96047F6FF70E860002129616960A961CD
:1018A000284600F05FFA2868CA214162532242624A
:1018B0008168C908C90041F003018160A06C8107FB
:1018C000FCD529460020FFF7E0FC00F01DF8364962
:1018D000052000F01FFB3549002000F01BFB3449B8
:1018E000042000F017FB3349012000F013FB012016
:1018F00000F060FB0121002000F03AFC002000F025
:10190000FBFB00F0E1FAFCE780B596B0442105A8A6
:1019100000F0EEF91421684600F0EAF90121802276
:101920000B910D9210200590002101220C910F9235
:1019300005A800F06BFC0F2000210090019102919E
:10194000039104916846022100F095FE17B000BD96
:10195000402803D0B0F5005F02D07047FEF7E4BE28
:1019600000F0BCBB70471448016841F00101016000
:10197000026842F48062026070470F48016821F4F7
:101980008061016001210268520852000260016119
:10199000704700004C10024018700040000A002000
:1019A00000040048002800407D1B00084B1600087A
:1019B000532D00084D20000808700040002070479B
:1019C000FFF79BBA80B510B101280BD001BD0120F3
:1019D00000F0B3FA042000F0B0FABDE802400520A0
:1019E00000F0ABBA00F0AFFA042000F0ACFABDE8AA
:1019F0000240052000F0A7BA80B5904701BD7047AE
:101A000070477047006040607047EFF3108172B616
:101A1000026882420CBF0120002012E0EFF3108226
:101A200072B6086043684B6041604868016019E025
:101A3000EFF3108172B6426803681360026843686E
:101A4000536081F31088704710B5EFF3108472B6BD
:101A500002680A600068FFE7FFF7EAFF84F3108876
:101A600010BD0B6082F310887047002000F05BBA55
:101A7000002000F079BA7047002000F084BAFFF728
:101A800093BC38B504460B46154600222946002073
:101A9000FFF762FC4FF47A7044433F212878B4FB8F
:101AA000F1F1BDE83440FFF7CBBC052000F03BBAB4
:101AB00000F053BF4AB1000011F8013B521E00F87C
:101AC000013B1CBF11F8013BF8E7704780B56A483D
:101AD000FFF798FFBDE80240012010B5674C20B920
:101AE000FFF770FF0021617010BD01206070BDE83C
:101AF0001040FFF767BF10B50146604C487A0F28C9
:101B000018BF0E2807D104F11000FFF787FFBDE8CA
:101B10001040FFF7ADBF04F10800FFF77FFF04F1AD
:101B20000800BDE81040FFF7C0BF80B55349012051
:101B30008870FFF79DFFBDE80140FFF79CBF2DE9CE
:101B4000F04104464D4F0D461646984607F11000E9
:101B5000FFF758FF012C7D6006D1FFF7B7FF434622
:101B600032462946012005E0FFF7B0FF43463246E2
:101B700029460020BDE8F041FEF72ABF1CB53F4CC6
:101B80000BE0694604F10800FFF75EFF009808309B
:101B9000FFF78EFF0098FEF78CFF04F10800FFF7B7
:101BA00034FF0028EDD013BDF8B505460020FFF73F
:101BB00094FF6E88314F2888A968EA68C6F3090641
:101BC00046EA80267868B6B2C272A0F80960D2B23E
:101BD0000C30FFF76FFFFEF71CFF0020B8703A468D
:101BE000274948F2E800FFF74CFF7878002804BF47
:101BF000B878002835D1FFF73FFF07F11000FFF755
:101C000004FF0028F1D1694607F11000FFF71CFF1F
:101C10000098014600F10B04487A0F2812D0B4F85E
:101C20000100B0420CD1887A6969C01EC0B28842F6
:101C3000C8BF0846686102462869E11CFFF73AFF01
:101C4000207806E06088B04202D12A6921781170BC
:101C5000607810B10120FFF740FF0098FEF729FFE0
:101C6000CBE73878FFF70BFFB878012802D14FF0A7
:101C7000FF30F2BD0020F2BD440A00203C0A0020E3
:101C80002B1B000890E70000124810B5016841F4D2
:101C9000807101600320FFF79CF80F20FFF78EFE94
:101CA0000024002814BF012400F018F8204610BDBD
:101CB0000948016841F00101016070470648016868
:101CC00041F00201016070470348016841F00401DE
:101CD0000160704700200240042004E070470000CB
:101CE0000248016841F48071016070470070004053
:101CF000002200F06DBE0000DFF81800006800F45C
:101D0000C0607047DFF81000016841F48071016025
:101D10007047000000700040087000408A60FF219A
:101D20000268516280F82130002180F820100020E4
:101D3000704790F82010012901D10220704701213D
:101D400080F82010022280F82120CA2103685962FD
:101D5000532201684A62012301688A6842F0200226
:101D6000DCE7000038B504460120002C45D094F88B
:101D7000210028B9002184F82010204600F0A2F8A4
:101D8000022184F82110CA20226850625321206861
:101D90004162204600F04BF801002ED12168DFF8A7
:101DA0001C018A6802408A6022689368656821691C
:101DB000A0690D4305432B4393602068E1680161EE
:101DC00020680169A26841EA02410161204600F0F1
:101DD0004EF8010011D12168CA6C92089200CA64C1
:101DE0002268D36CE56961690D432B43D364FF22FC
:101DF00023685A62012184F8211032BD38B50446A7
:101E00002068C16821F0A001C16000F0FBFD05461B
:101E10002068C168880608D400F0F4FD401B40F239
:101E2000E9318842F4D3032032BD002032BD70B5C1
:101E3000044600252068C1684A0616D44FF0FF31D9
:101E4000C16000F0DFFD064609E000F0DBFD801B0D
:101E500040F2E931884224BF032584F821502168EB
:101E6000C868410601D4032DEFD1284670BD70B576
:101E7000134D0446686820F08000686000262968D9
:101E8000880608D42046FFF7B9FFA0B1032084F8E4
:101E9000210003260FE0286820F02000286020465B
:101EA000FFF7ACFF18B1032084F82100032628684F
:101EB00040F020002860304670BD0000BFFF8FFF5B
:101EC000082800407047000038B5384C12E0B0FADE
:101ED00080F1EFF3108072B6A2690123C1F11F05F2
:101EE000AB409A43A26180F31088494204EB810021
:101EF000C16F8847A069E1690840E8D1EFF3108518
:101F000072B601BF206A616A0842FFF759FD85F386
:101F1000108831BDEFF3108272B6244B43F82010C5
:101F200082F31088704710B500F028F893690124F7
:101F300004FA00F0184390610AE010B500F00BF8C5
:101F400023EA000003E010B500F005F81843D06163
:101F500081F3108810BDEFF3108172B6134AD36974
:101F6000012404FA00F0704710B500F007F8136A76
:101F7000012404FA00F018431062E9E7EFF310813E
:101F800072B60A4A704738B5084C656A012101FAF1
:101F900000F0606201E000F00BF8606A216A014223
:101FA000F9D021EA00002062656231BD0000002006
:101FB000FFF78ABF002800D170471FB5444C40F29C
:101FC000325304F5D67204F1A0010120FFF7B7FDEA
:101FD000AFF3008000F078FC002084F89C0018210A
:101FE000012000F04CFD0020207000F011FE0020C8
:101FF0006070E070102108206075A17500202075C8
:1020000001203449A161A070211D0020C2B2885472
:10201000401CC3B2102BF9DBA078A1690390029198
:10202000221D207DA17D01900091637DE178607883
:1020300000F003FEA07808B100F043FE00F081FE3E
:1020400004B0BDE810400120FFF76DBF204890F8B4
:102050009C100A2900D1704700B587B00020069077
:102060000590002220A004920E21002302900191ED
:10207000009203934FF4C8624FF4FA71002000F00D
:1020800058FD07B000BD4378114A1349052B02D013
:102090003E2B0DD070478088B2F89E30984215D103
:1020A0000020A2F89E0003228B880A704B800AE071
:1020B000C378012B0AD1B0F805008880A2F89E00F1
:1020C00002220A704880084600F02CBE70470000CB
:1020D0004000002007B20100B00A00200420FFF7F2
:1020E00022BF00F09FBE0000094C425F5032505F9B
:1020F000534552564552000080B5010086B00AD1C2
:10210000DFF8EC100A6842F002020A60096801F088
:102110000201009100990FF2E80252F82030019379
:1021200001220292002302220492039301A9DFF804
:10213000C42052F82000FEF7D7FC07B000BD10B550
:1021400000F00DF8BDE81040012205E010B500F0E8
:1021500006F8BDE81040002289B2FEF7A9BDDFF8FD
:1021600094400FF29C0353F8201054F8200070475D
:1021700010B50446DFF8780086B0026842F0040229
:1021800002600B000068DFF8702000F0040000908F
:1021900000980FF270000BD130F814100191002359
:1021A0000293012102230391049300F01CF818E02C
:1021B000012916D130F81410019103930321DFF89F
:1021C0003C300491029300F00EF80FF23C0030F81E
:1021D000144000220F2160B2FEF708FE60B2FEF745
:1021E00023FE06B010BD01A952F82400FEF77CBC06
:1021F0004C100240280000202C000020000011108C
:102200000040000000200000280000002DE9FC47ED
:10221000050065D0DFF87876DFF88466BC68F8687A
:1022200000F003082878C10604F00C0448D524B156
:102230000C2C08BFB8F1010F2CD13868810702D5EA
:10224000A86900284CD0396808074EBF3968716802
:102250000909286A01F0F001814206D200F0DEFA95
:1022600000283DD100F0F5F907E000F0F2F924B9BB
:10227000286A00F0D3FA002832D100F086FABA6852
:1022800000F079FADFF810060068FFF797FB01000D
:1022900016D0D8E1A86928B3396841F00101396046
:1022A00000F0B0FB81463868810707D400F0AAFB34
:1022B000A0EB09000328F6D30320C4E100F0C9F91C
:1022C0002878C10756D5082C04D00C2C08BFB8F1CB
:1022D000030F18D1386881034CD56868002849D1AC
:1022E0000120B0E1386840084000386000F08AFB07
:1022F000814638688107E3D500F084FBA0EB090034
:102300000328F6D3D8E76868B0F5803F04D1386871
:1023100040F48030386011E0B0F5A02F386806D165
:1023200040F480203860396841F4803105E020F4C1
:1023300080303860396821F480213960686860B184
:1023400000F060FB81463868810313D400F05AFB2B
:10235000A0EB09006528F6D3AEE700F053FB8146F9
:102360003868810306D500F04DFBA0EB0900652815
:10237000F6D3A1E72878810713D5042C04D00C2CC0
:1023800008BFB8F1020F22D13868410502D5E868CC
:102390000028A5D07868296920F0F85040EA01604B
:1023A00078602878010743D568690028706830D0C4
:1023B00040F00100706000F025FB804670688107E6
:1023C00036D400F01FFB00F040F9F7D374E7E8685B
:1023D00078B1396841F48071396000F013FB8046B0
:1023E00038684105D6D400F00DFB00F02EF9F7D384
:1023F00062E7386820F48070386000F003FB8046A4
:1024000038684105CDD500F0FDFA00F01EF9F7D38C
:1024100052E740084000706000F0F4FA80467068AF
:10242000810705D500F0EEFA00F00FF9F7D343E786
:102430002878410767D5B86DC1004FF000080AD46D
:10244000B86D40F08050B8654FF00108B86D00F0ED
:10245000805000900098DFF84C94D9F80000C10536
:1024600013D4D9F8000040F48070C9F8000000F0DF
:10247000C9FA8246D9F80000C10506D400F0C2FAB4
:10248000A0EB0A000328F5D316E7A868012804D1B9
:10249000306840F00100306010E00528306806D157
:1024A00040F004003060316841F0010105E040086F
:1024B00040003060316821F004013160A86841F2C9
:1024C000893960B100F09EFA82463068810713D4E2
:1024D00000F098FAA0EB0A004845F6D3ECE600F0CD
:1024E00091FA82463068810706D500F08BFAA0EB9E
:1024F0000A004845F6D3DFE6B8F1000F03D0B86D07
:1025000020F08050B865A86A002800F09B8002285F
:1025100078D1F868EA6A00F00301914201BF00F047
:1025200070012A6B521EB1EB021F1ED16A6B00F4C0
:10253000FE41B1EB022F18D1A96B07290CBF002176
:10254000012100F400328A420FD1EA6B520800F4F4
:10255000C001521EB1EB425F07D1296C490800F05F
:10256000C060491EB0EB416F48D00C2C4BD038688E
:10257000410101D43868C1003FF5B2AE386820F09F
:102580008070386000F03EFA04463868810105D555
:1025900000F038FA001B0328F7D38DE6F868DFF85F
:1025A0000813EA6A0840296B1043491E40EA0110EB
:1025B000EA6B696B520840EA0120296C521E4908F7
:1025C00040EA4250491E40EA4160A96B090940EACD
:1025D0004140F860386840F080703860F96841F038
:1025E0008071F96000F00EFA04463868810129D440
:1025F00000F008FA001B0328F7D35DE63868810174
:1026000020D4E7E70C2C3FF46BAE386820F08070E4
:102610003860396811F0205F03D1F86880088000C5
:10262000F860F968DFF884020140F96000F0EAF927
:1026300004463868810105D500F0E4F9001B032841
:10264000F7D339E60020BDE8F687A0EB08000328A1
:102650007047386840F0080038603968286A21F00F
:10266000F001014339607968E86921F47F4141EA6A
:102670000021796070472DE9F0410400884658D068
:10268000DFF82C62306800F00700404509D231685D
:10269000C90848EAC1013160306800F007004045D0
:1026A00047D12078DFF8E851C1072AD560680328B0
:1026B00002D129688A0108E0022802D129688A0328
:1026C00003E00028296802D18A0702D431E04A05D4
:1026D0002FD5A968890840EA8100A86000F092F926
:1026E0000746A868616800F00C00B0EB810F08D0C5
:1026F00000F088F9C01B41F289318842F1D30320F0
:1027000037E02078810705D5AA68A06822F0F0029A
:102710000243AA60316801F0070188450BD2306896
:10272000C00848EAC0003060316801F00701414547
:1027300001D001201DE02078410705D5AA68E06896
:1027400022F4E0620243AA602178080706D5A9684E
:10275000206921F4605141EAC001A96000F015F838
:10276000AA6800F008F8BDE8F0414B480068FFF7A0
:1027700025B9BDE8F0814F49C2F30312895C454A8F
:1027800001F01F01C8401060704770B5404A4A4BC5
:102790009068D6680025002110F00C0006F00306B2
:1027A000464C03D00C2812D1012E1AD115682E07E1
:1027B00004D43A4D2E68C6F3032502E01568C5F32C
:1027C00003153F4E56F8255048B9294624E0042801
:1027D00008BF214620D008281ED119461CE00C282D
:1027E0001AD1D06800F00300022803D0032808BFE4
:1027F0001D4600E02546D168D068D268C0F30620A7
:102800004543C1F30210C2F34161401C491CB5FBB2
:10281000F0F04900B0FBF1F1084670BD7CB5294EDF
:10282000054630680024C10002D5FFF765FA0EE0C6
:10283000306840F080503060316801F08051009184
:102840000098FFF759FA316821F080513160B0F5F6
:10285000007F04D1802D0CD9A12D09D304E0802D57
:1028600088BF032405D801D1022402E0702D00D1D5
:1028700001240F480168C90844EAC10101600068E9
:1028800000F00700A04201D0012076BD002076BDF7
:10289000001002403C00002038000020941002404C
:1028A00090100240007000408C809DF9FFFFEEFE0A
:1028B000002002405431000800127A000024F40085
:1028C0009C31000858100240F8B504208DF808002B
:1028D00000213A480172017500F076F8024606219F
:1028E000002000F095F802AA01212D2000F090F8B8
:1028F00000F0E4FA0DF10E000DF10A0101900091D3
:1029000003AB07220021012000F0E1F82CA0BDF864
:102910000A1000900723BDF80C00002200F07CFB99
:1029200000F0CCFB002000F0CAFB00F0C9FB00F077
:10293000C8FB00F0C7FB00F0C6FB00F0C5FB00F0D1
:10294000C4FBFFF7CEFB05B000BD1C490A7A41F875
:102950002200087A401C0872704770B504466078FF
:10296000FF2802BFB4F8030000F47F40B0F5406FC9
:102970001CD10026114D00E0761C297AF0B2884265
:1029800006D2F1B255F82120204690470028F3D016
:10299000002607E0F1B205EB81012046CA689047A6
:1029A00048B9761C297DF0B28842F3D32046BDE8B1
:1029B0007040FFF768BB70BD00000000240A0020D3
:1029C000426C75654E52470000487047DC32000883
:1029D00000B500BF130096469446103928BFA0E802
:1029E0000C50FAD85FEA417C28BF0CC048BF40F8C1
:1029F000042BC90728BF20F8022B48BF00F8012B81
:102A000000BD000001484068704700BF3000002052
:102A100018B50C461146A21CB2F5807FC7B0A8BFFE
:102A2000422024DA8DF81C008DF81D4022460DF15D
:102A30001E0000F04BFB00F03CF83F21ADF8041005
:102A40000C22ADF8062007A90391A41C0122E4B2D0
:102A5000ADF81820ADF81040CDF814D0002101A831
:102A6000FFF710F900284CBFFF209DF8000048B088
:102A700010BDADF806203F21ADF80410704700B539
:102A800087B08DF802008DF8031000F012F80F22C5
:102A9000FFF7EFFF0222ADF810200DF102010391C4
:102AA00000F00CF800284CBFFF209DF8000007B094
:102AB00000BD1822002101A800F00EBB0122ADF8D4
:102AC0001820CDF814D0002101A8FFF7DBB818B505
:102AD00089B08DF800008DF801108DF802201C4699
:102AE000072200F0DCF800F018F98A2200F0F9F86B
:102AF0000322ADF8182001A907910722ADF8202084
:102B0000CDF814D000F005F9002848BFFF200ED4FE
:102B10009DF8040058B90D990C98BDF80520228045
:102B2000BDF807300380BDF80900088000200AB016
:102B300010BD2DE9FC4506B491B000F062F828BF45
:102B4000422020D200F050F800F030F800F034F8C5
:102B500000F03DF800F022F800F018F800F09EF8C0
:102B600000F0C7F8832200F09EF8BF1C0122FFB2DC
:102B7000ADF81820ADF8107000F0C3F800284CBF75
:102B8000FF209DF8000015B0BDE8F085BF1CFFB226
:102B900007A8022222A9C01900F098BAAF1907A805
:102BA000FBB2022221A9184400F090BA022212A915
:102BB0000DF11F0000F08ABA8DF821608DF8228097
:102BC0008DF823402246514609A800F07FBA04F14F
:102BD000080607A8F1B2761C4554F6B207AB2A46A0
:102BE0003946981900F072BA209FDDF878A0DDF818
:102BF00070808DF81C00022211A90DF11D0000F05B
:102C000065BA1D9C1F9D29190E3129291E46704742
:102C100000B587B018228DF8010000F040F800F0F0
:102C200068F8852200F044F800F069F800284CBFED
:102C3000FF209DF8000007B000BD2DE9F0418EB0E7
:102C40008DF81C008DF81D101746149C159D179EBD
:102C50009846102239460DF11E0000F037FA0DF1AA
:102C60003100169901608DF82E808DF82F408DF877
:102C700030508DF8356000F011F8862200F037F8FA
:102C80001A22ADF8102007A900F037F800284CBF31
:102C9000FF209DF800000EB0BDE8F0811822002151
:102CA00001A800F019BAADF8062007A903917047F2
:102CB000ADF806200DF1010103910122ADF81020BD
:102CC000704700B587B0FFF7E9FF922200F00FF8D8
:102CD00000F014F800284CBFFF209DF8000007B05A
:102CE00000BDADF80E203F21ADF80C107047ADF8D7
:102CF00006203F21ADF80410704703910122ADF882
:102D00001820CDF814D0002101A8FEF7BBBFCDF8E4
:102D10001CD0002103A8FEF7B5BF1822002103A88C
:102D200000F0DAB902782449022A02D0032A03D03B
:102D3000704740888880704700228A800120FFF712
:102D4000F2B81D4800210123017081804370817019
:102D500070471949887801280CBF0020012088702D
:102D6000012208784A7020B1491C42F6513000F027
:102D700090B8704710B504460F48217821B1012959
:102D800005D0032906D010BD0122027010BD00211C
:102D9000017010BD6068017801290CD141780129CA
:102DA00004BF0020FFF7CBF96168487818B9BDE887
:102DB0001040FFF7CBB910BDA00A00207FB5054633
:102DC00000246878FF2802BFB5F8030040F60141EF
:102DD000884224D1374EB188B5F80700891C884253
:102DE0000BD1287B0124C10746BF00228DF80020AB
:102DF0008DF800406846FFF7BDFF7188B5F8070001
:102E0000491C88420BD103208DF8000005F10C020B
:102E1000697A8DF8081001926846FFF7ABFF2046EB
:102E200004B070BD18B587B02348224CFFF78DFD64
:102E300041F63021ADF8181000940623012206A9AE
:102E4000012000F04FF842F65030ADF81800A11CF8
:102E500000F00FF8062200F014F842F65130ADF8F9
:102E60001800211D00F005F8102200F00AF808B043
:102E700010BD01220591049202920A2003900021C4
:102E80007047019100920223208806AA012100F0D8
:102E90005CB81CB5422242F65134A04208D1054824
:102EA0000091022381880088002200F0B5F80246D4
:102EB000104616BDA80A0020BD2D000800B587B039
:102EC00000F0DFF840F2011200F0F2F80122ADF854
:102ED000182000F0E7F800284CBFFF209DF8000004
:102EE00007B000BD70B58CB001288DF81C001646E7
:102EF0000CBF022410241D4622460DF11D0000F0D7
:102F0000E5F8641C07A8E1B2641C4654E2B2002153
:102F100085540322684600F0DFF800F0B2F800F0B4
:102F2000ACF84FF4817200F072F8641C032200F0D8
:102F3000B4F8002848BFFF2005D49DF8000010B960
:102F4000109800F056F80CB070BD2DE9F54F8FB019
:102F50000C469A4602220FA900F056F807AE012C43
:102F6000B4700CBF022710271E9C1D9DDDF87090C9
:102F7000DDF86CB0DDF8688010993A460DF11F005D
:102F800000F0A4F8FF1CF8B27F1C06F800A0F9B20C
:102F90007F1C06F80180FAB27F1C06F802B0FBB273
:102FA0007F1C06F80390F8B27F1C3554F9B2032257
:102FB000745400F023F800F064F800F05EF84FF469
:102FC000827200F024F87F1C0322FFB2ADF81820B3
:102FD000ADF8107000F066F8002848BFFF2005D457
:102FE0009DF8000010B91F9800F003F811B0BDE87B
:102FF000F08FBDF801100180002070470021684665
:1030000000F06AB8022247A907A800F05FB8ADF83F
:10301000062007A90391704773B51C46A01DB0F5A3
:10302000807FC8B01546A8BF422020DA4E9E0222FB
:1030300048A9FFF7E9FF022249A900F029F88DF815
:1030400020508DF821402246314600F012F800F061
:1030500018F800F012F84FF48372FFF7D8FFA41DA0
:1030600000F01AF800284CBFFF209DF800004AB07D
:1030700070BD0DF1220000F029B83F21ADF8041019
:1030800070471822002101A800F026B8022248A9A2
:103090000DF11E0000F01AB80122E4B2ADF81820BC
:1030A000ADF81040CDF814D0002101A8FEF7EABD1C
:1030B000ADF806203F21ADF8041070477047704707
:1030C00070477047704770477047704710B50446A7
:1030D000FEF7F0FC204610BD10B5044610460A4627
:1030E0000146204600F002F8204610BD4018491C59
:1030F0001CBFB1F1010100F8012DF9D170470000AA
:103100000D480E4B016841F4700101604FF0805191
:103110000B48026842F0030202604FF480620948E3
:1031200081651A60992101604FF00063064A0748E3
:10313000074910600B60704788ED00E000700040A8
:1031400000200240001002403C00002000366E01CA
:1031500008ED00E000000000000000000102030490
:103160000607080930B5016884684218416802EB17
:103170005103C90703D54C4401E0491C05D19A42CB
:103180000AD012F9011B12F8015B002904F8015B57
:10319000F3D4491EF7D5F2E70C3030BDA08601000C
:1031A000400D0300801A060000350C0040420F005D
:1031B00080841E0000093D0000127A000024F40003
:1031C00000366E010048E801006CDC027047FEE743
:1031D000FEE7FEE7FEE770477047704700F00EB865
:1031E000FEF70AB84020FDF768BD4FF40050FDF728
:1031F00064BDFDF7F1BAFDF7B0BA000002484168BE
:1032000002788A18426070473000002010B50749E4
:1032100079441831064C7C44163404E00A68081DD1
:10322000114488470146A142F8D110BD2C0000008E
:10323000480000004EF68851CEF20001086840F4C4
:1032400070000860BFF34F8FBFF36F8F4FF00070B7
:10325000E1EE100A70470000EBDCFFFF780A000087
:103260004000002000000000FDFEFFFFA401000060
:10327000320000000000002000F00DF8002801D00E
:10328000FFF7C4FFAFF300800020AFF30080FEF72C
:1032900061FA00F002F80120704700F001B8000068
:1032A0000746384600F002F8FBE7000080B5AFF3B0
:1032B0000080024A11001820ABBEFBE72600020086
:1032C000014880470148004701310008D132000819
:1032D000AFF30080FFF7AEFFFFF7CEFFAA22334423
:1032E00055AA0000FFF7FEBFFFF7FEBFFFF7FEBFC6
:1032F000FFF7FEBFFFF7FEBFFFF7FEBFFFF7FEBF02
:10330000FFF7FEBFFFF7FEBFFFF7FEBFFFF7FEBFF1
:10331000FFF7FEBFFFF7FEBFFFF7FEBFFFF7FEBFE1
:10332000FFF7FEBFFFF7FEBFFFF7FEBFFFF7FEBFD1
:10333000FFF7FEBFFFF7FEBFFFF7FEBFFFF7FEBFC1
:10334000FFF7FEBFFFF7FEBFFFF7FEBFFFF7FEBFB1
:10335000FFF7FEBFFFF7FEBFFFF7FEBFFFF7FEBFA1
:10336000FFF7FEBFFFF7FEBFFFF7FEBFFFF7FEBF91
:10337000FFF7FEBFFFF7FEBFFFF7FEBFFFF7FEBF81
:10338000FFF7FEBFFFF7FEBFFFF7FEBFFFF7FEBF71
:10339000FFF7FEBFFFF7FEBFFFF7FEBFFFF7FEBF61
:1033A000FFF7FEBFFFF7FEBFFFF7FEBFFFF7FEBF51
:1033B000FFF7FEBFFFF7FEBFFFF7FEBFFFF7FEBF41
:1033C000FFF7FEBFFFF7FEBFFFF7FEBFFFF7FEBF31
:1033D000FFF7FEBFFFF7FEBFFFF7FEBFFFF7FEBF21
:1033E000FFF7FEBFFFF7FEBFFFF7FEBFFFF7FEBF11
:1033F000FFF7FEBFFFF7FEBFFFF7FEBFFFF7FEBF01
:10340000FFF7FEBFFFF7FEBFFFF7FEBFFFF7FEBFF0
:10341000E400FCFFF700070400480008004801F939
:09342000000010FC0002093D004F
:04000005080032D1EC
:00000001FF
